:020000040800F2
:10000000005E00205102000835370008373700082D
:10001000393700083B3700083D3700080000000072
:100020000000000000000000000000003F37000852
:100030004137000800000000433700084737000838
:100040006B0200086B0200086B0200086B020008DC
:100050006B0200086B020008033100086B02000805
:100060006B0200086B0200086B02000833260008D0
:10007000372600083B2600083F26000843260008D4
:10008000472600084B2600086B0200086B02000898
:100090006B0200086B0200086B0200086B0200088C
:1000A0006B0200086B0200086B0200086B0200087C
:1000B0006B0200086B0200086B0200086B0200086C
:1000C0006B0200086B0200086B0200086B0200085C
:1000D0006B020008932E0008A72E00084331000889
:1000E0006B0200086B0200086B0200086B0200083C
:1000F0006B0200086B0200086B0200084F26000824
:100100006B0200086B0200086B0200086B0200081B
:10011000BD2E0008D32E00086B0200086B020008F9
:1001200053260008572600085B2600085F260008B3
:10013000632600086B0200086B0200086B020008CF
:100140006B0200086B0200086B0200086B020008DB
:10015000672600086B2600086F260008E72E0008B7
:100160006B0200086B0200086B0200086B020008BB
:100170006B0200086B0200086B0200086B020008AB
:100180006B0200086B02000800F002F800F050F863
:100190000AA090E8000C82448344AAF10107DA45E2
:1001A00001D100F045F8AFF2090EBAE80F0013F0E4
:1001B000010F18BFFB1A43F0010318473074000009
:1001C00050740000103A24BF78C878C1FAD852079A
:1001D00024BF30C830C144BF04680C6070470000C1
:1001E0000023002400250026103A28BF78C1FBD840
:1001F000520728BF30C148BF0B607047662907F01F
:100200006C80642904F07A81002070471FB507F0E4
:100210005AF89DE8030004F059FA04F023FD0400A5
:100220000020002106F070FAE0601FBD10B510BD7F
:1002300004F039FE1146FFF7E9FF03F010F904F06E
:1002400057FE03B4FFF7F2FF03BC04F0B6F800005A
:100250000948804709480047FEE7FEE7FEE7FEE75A
:10026000FEE7FEE7FEE7FEE7FEE7FEE70448054996
:10027000054A064B70470000F9370008890100085D
:1002800000560020005E0020005A0020005A002086
:10029000F748016841F001010160F64A0021116050
:1002A000026822F4102222F0A8520260031DF24AD2
:1002B0001A60F34BF14A1A601B1DF24A1A60026879
:1002C00022F480220260F0480160181D016070472E
:1002D000EE4900220A700870704700224109012986
:1002E0000DD002290ED0EA49096800F01F00012351
:1002F00003FA00F0084200D0012210467047DC49A2
:100300000968F2E7E3490968EFE708B500200090C3
:100310003120FFF7E2FF0099491C00910099B1F5E7
:10032000A04F01D00028F3D03120FFF7D6FF08B14D
:10033000012008BD002008BDCD4A116821F0F80158
:1003400041EAC00010607047D34908607047D14946
:1003500000220A700A70012804D0042801D1052067
:1003600008707047012008707047CC4908607047DA
:10037000DDF800C041EA82114FF0FF3202EB530278
:1003800041EA02410843C64940EA0C6008607047F0
:10039000C14908667047800140EA0170B8490860A9
:1003A0007047BD4988667047800140EA0160BD49D9
:1003B00040EA027008607047B74908677047B6495D
:1003C000C8647047AB4B1A6822F0EC6208431043D4
:1003D00018607047A74B1A6822F078420843104310
:1003E00018607047A34A116821F0030108431060A8
:1003F0007047A048006800F00C0070479D4A1168E3
:1004000021F0F0010843106070479A4A116821F406
:10041000E051084310607047964A116821F460412A
:1004200041EAC0001060704710B4924C216801F09E
:100430000C019D4A00291FD004291FD008291FD074
:100440000260216801F0F0010909984B595C0268CB
:1004500022FA01F14160226802F4E052920A9A5CA9
:1004600021FA02F28260226802F46042520B9A5C26
:10047000D140C16010BC70470260E2E70260E0E773
:10048000874B1968C1F3805C196801F03F01BCF12A
:10049000000F06D0B2FBF1F11A68C2F38812514383
:1004A00005E0B2FBF1F11A68C2F3881251431A68F1
:1004B000C2F30142521C5200B1FBF2F10160C0E7ED
:1004C0004FF44071814309D16A4A116821F4F8114F
:1004D00020F4407323F07043194311606D490A689A
:1004E000C0F30B0010430860704771490860704703
:1004F0007049086070477049086070476F4A11681A
:1005000021F440110843106070476C4A116821F4CF
:100510004001084310607047684A116821F01F01CC
:10052000401E084310607047644A116821F4F85176
:10053000401E41EA002010607047604A116821F4B3
:1005400040310843106070475D49086070475D4A5C
:10055000002903D01168084310607047116821EA30
:10056000000010607047584A002903D01168084302
:1005700010607047116821EA000010607047534A0C
:10058000002903D01168084310607047116821EA00
:100590000000106070474E4A002903D011680843DC
:1005A00010607047116821EA000010607047494AE6
:1005B000002903D01168084310607047116821EAD0
:1005C000000010607047444A002903D011680843B6
:1005D00010607047116821EA0000106070473F4AC0
:1005E000002903D01168084310607047116821EAA0
:1005F0000000106070473A4A002903D01168084390
:1006000010607047116821EA000010607047354A99
:10061000002903D01168084310607047116821EA6F
:10062000000010607047304A002903D01168084369
:1006300010607047116821EA0000106070472B4A73
:10064000002903D01168084310607047116821EA3F
:10065000000010607047264A002903D01168084343
:1006600010607047116821EA0000106070470000B8
:1006700000380240083802401030002400300020CA
:1006800084380240003000240C3802400238024016
:10069000743802407038024000004742800E4742E2
:1006A00004380240883802400024F4000000002092
:1006B0003C0E4742400E47425C0147428C380240A4
:1006C000E0114742303802403438024038380240A6
:1006D000403802404438024010380240143802408A
:1006E0001838024020380240243802405038024076
:1006F00054380240264A002903D01168084310608C
:100700007047116821EA000010607047214A0029F3
:1007100003D01168084310607047116821EA000097
:10072000106070471C4A002903D01168084310600C
:100730007047116821EA00001060704717490128CE
:1007400004D0086820F0080008607047086840F08E
:10075000080008607047124A002903D01178084346
:1007600010707047117821EA0000107070470D4832
:10077000016841F0807101607047014600200A4A1B
:1007800012680A4200D0012070470849087070477B
:1007900058380240603802406438024070380240E5
:1007A0000D380240743802400C3802400E380240C6
:1007B00010B5A0F18041B1F500313CD0A0F18041ED
:1007C000B1F5013141D0A0F18041B1F5023146D0FF
:1007D000A0F18041B1F503314BD0A0F18041B1F5DA
:1007E000043150D0A0F18041B1F5053155D0A0F1D0
:1007F0008041B1F506315AD0A0F18041B1F5073101
:100800005FD0A0F18041B1F5083164D0A0F1804102
:10081000B1F509316AD0A0F18041B1F50A3170D14A
:1008200001218802FFF7CFFEBDE8104000214FF400
:100830008060FFF7C8BE01210846FFF7C4FE002113
:10084000BDE810400120FFF7BEBE01210220FFF7E6
:10085000BAFE0021BDE810400220FFF7B4BE01211E
:100860000420FFF7B0FE0021BDE810400420FFF790
:10087000AABE01210820FFF7A6FE0021BDE8104016
:100880000820FFF7A0BE01211020FFF79CFE0021E9
:10089000BDE810401020FFF796BE01212020FFF791
:1008A00092FE0021BDE810402020FFF78CBE012100
:1008B0004020FFF788FE0021BDE810404020FFF7F0
:1008C00082BE01218020FFF77EFE0021BDE810409E
:1008D0008020FFF778BE01210802FFF774FEBDE813
:1008E000104000214FF48070FFF76DBE01214802D7
:1008F000FFF769FEBDE8104000214FF40070FFF7DC
:1009000062BE10BD2DE9F00100220126032706FA80
:1009100002FC0B6803EA0C03634538D105685300F9
:1009200007FA03F4A54305600D79D0F800809D40D7
:1009300045EA080505600D79012D01D0022D17D17A
:100940008568A54385604D79D0F808809D4045EACB
:1009500008058560456825EA0C0CC0F804C0D0F88D
:1009600004C08D799540ADB24CEA050CC0F804C0C6
:10097000D0F80CC02CEA040CC0F80CC091F807C0E9
:100980000CFA03F3D0F80CC043EA0C03C360521C0A
:10099000102ABCD3BDE8F00170474FF6FF7101602B
:1009A0000021017141718171C171704781B041F4C1
:1009B00080320092009AC261C1610099C161C1692F
:1009C000C069009001B070470246002012690A42D7
:1009D00000D001207047006980B2704702460020B5
:1009E00052690A4200D001207047406980B27047C6
:1009F0000183704741837047002A01D0018370470B
:100A0000418370474161704742695140416170477D
:100A10004B07DB0E9A40C90800EB8100016A4FF0DA
:100A20000F0C0CFA03F399430162016A114301624E
:100A300070470000304940F0FD7040F08060086071
:100A4000704710B44FF00F0CC27801240178002ACF
:100A500023D0294A126802F4E062C2F5E062C2F3D0
:100A60000722C2F104032CFA02FC42789A408378F0
:100A700003EA0C031A43120101F1E02181F800247A
:100A8000007800F01F0104FA01F14009800000F134
:100A9000E020C0F8001110BC704701F01F0004FAFC
:100AA00000F04909890001F1E021C1F8800110BC82
:100AB000704721F07F0121F0604108430F49086031
:100AC00070470F4A002903D011680843106070472F
:100AD000116821EA0000106070474FF0E0210428FF
:100AE00004D0086920F0040008617047086940F0EC
:100AF00004000861704700000CED00E008ED00E024
:100B000010ED00E010B5A0F18041B1F5983123D08F
:100B1000A0F18041B1F5605129D0A0F18041B1F53B
:100B200070512FD0A0F18041B1F59A3135D0A0F1AC
:100B30008041B1F5A8313BD0A0F18041B1F5AA3197
:100B400041D101214805FFF76EFDBDE810400021AD
:100B50004FF40010FFF767BD01210803FFF763FDA5
:100B6000BDE8104000214FF48050FFF75CBD01212B
:100B70008803FFF74CFDBDE8104000214FF4804092
:100B8000FFF745BD0121C803FFF741FDBDE8104057
:100B900000214FF40040FFF73ABD01214803FFF761
:100BA00042FDBDE8104000214FF40050FFF73BBD6F
:100BB00001210805FFF737FDBDE8104000214FF483
:100BC0008010FFF730BD10BD10B4028802F441520E
:100BD0000B88B1F802C0CC8843EA0C03B1F804C01A
:100BE0004CEA040C43EA0C03B1F808C043EA0C03D6
:100BF000B1F80AC043EA0C03B1F80CC043EA0C0395
:100C0000B1F80EC043EA0C031A430280828B22F42F
:100C100000628283098A018210BC7047F0B402220C
:100C200000234FF0010C848B24F0BF0424F4706483
:100C3000848302240484858B8C68022C44D08A88A7
:100C40000AB14FF0020CA74A136813F4000F03D047
:100C5000136823F400031360A34A1368C3F38813D3
:100C60001268C2F30274A14E326802F03F02366885
:100C700016F4800F9E4E05D0B6FBF2F25A43B2FB3B
:100C8000F4F204E0B6FBF2F25A43B2FBF4F2CB8882
:100C9000B3F5007F32D04FEA4C13B2FBF3F202EB14
:100CA00082028B685200B2FBF3F2521D92B2914B5A
:100CB000A3FB0232D20802F00103D21AC2F34F02A0
:100CC0004FF6FF7C0CEA0323A2F1020CBCF1FE0FED
:100CD00001D302220023B1F806C01A434CEA0202F3
:100CE00002840A884B881A438B88898919431143E7
:100CF000294341F400618183F0BC7047120A02EB82
:100D000082028B685200B2FBF3F2521D92B2CEE720
:100D10000021018041808180C180018141818181E8
:100D2000C1810721018270470021018041808180BB
:100D3000C1800222826081817047002904D001882D
:100D400041F0400101807047018821F0400101809D
:100D50007047002904D0818B41F480618183704702
:100D6000818B21F4806181837047028822F40062C4
:100D700002800288114301807047B1F5804F04D092
:100D8000018821F4804101807047018841F480414D
:100D900001807047A1F57E42FF3A04D0018841F4FA
:100DA000807101807047018821F480710180704753
:100DB000002904D0818841F0040181807047818836
:100DC00021F0040181807047002904D0818841F01E
:100DD000100181807047818821F010018180704767
:100DE00010B40023828B22F0BF0222F4706282834F
:100DF00002220284B0F81CC00A88B2F5007F00D03D
:100E00000AB94FF480734A888C8889892243194330
:100E1000114341EA0C0141F40061818310BC704729
:100E20008089704781817047002904D0018841F48E
:100E3000005101807047018821F400510180704702
:100E4000018841F4805101807047012901D0008B55
:100E50007047808A7047008A7047002A03D08288D2
:100E6000114381807047828822EA010181807047A6
:100E70000909012303FA01F189B2002A03D082880B
:100E8000114381807047828822EA01018180704786
:100E90000246002012890A4200D001207047C9434F
:100EA00001817047002201F00F034FF0010C0CFA92
:100EB00003F39BB209090CFA01F189B2B0F804C03E
:100EC0000CEA01010089184201D001B1012210464B
:100ED000704701F00F01012202FA01F1C9430181BB
:100EE000704700000838024084380240043802404D
:100EF0000024F400CDCCCCCC2DE9F003016821F026
:100F0000010101600021016041608160C1600161F7
:100F100021214161D34AD4494FF03D08904204D188
:100F2000C1F80880BDE8F0037047D04A4FF47464FC
:100F3000904203D18C60BDE8F0037047CC4A4FF477
:100F40007415904203D18D60BDE8F0037047C94A23
:100F50004FF07466904203D18E60BDE8F003704795
:100F6000C54BC64A984203D1CA60BDE8F00370473A
:100F7000DFF80CC3C34B604503D1CB60BDE8F00381
:100F80007047C14FDFF804C3B84204D1C1F80CC0A8
:100F9000BDE8F0037047DFF8F8924FF03D57484541
:100FA00003D1CF60BDE8F0037047DFF8E892BA499B
:100FB000484504D1C1F80080BDE8F0037047DFF870
:100FC000DC82404503D10C60BDE8F0037047B44CAF
:100FD000A04203D10D60BDE8F0037047B14CA042C0
:100FE00003D10E60BDE8F0037047AF4CAF49A0429B
:100FF00003D10A60BDE8F0037047AD4A904203D1C7
:101000000B60BDE8F0037047AA4A904204D1C1F8D2
:1010100000C0BDE8F0037047A74A9042F9D10F60C5
:10102000BDE8F003704710B40268A44B1A40D1F831
:101030000CC00B688C6943EA0C03D1F814C04CEA6D
:10104000040C43EA0C03D1F81CC043EA0C03D1F8AA
:1010500020C043EA0C03D1F824C043EA0C03D1F8C2
:1010600028C043EA0C03D1F834C043EA0C03D1F89A
:1010700038C043EA0C031A430260426922F00702B7
:10108000D1F830C0CB6A43EA0C031A4342610A69C3
:1010900042604A6882608968C16010BC7047002164
:1010A000016041608160C160016141618161C16134
:1010B000016241628162C162016341638163704781
:1010C000002904D0016841F0010101607047016806
:1010D00021F0010101607047002904D0016841F44A
:1010E000004101607047016821F4004101607047D0
:1010F000002904D0016841F02001016070470168B7
:1011000021F020010160704741607047406880B263
:101110007047002A04D0026842F40022026003E013
:10112000026822F40022026001617047002904D0A5
:10113000016841F4802101607047016821F4802139
:1011400001607047002A01D001617047C16070479B
:1011500001460020096811F4002F00D001207047DB
:1011600001460020096811F0010F00D001207047EE
:10117000406900F03800704702460020454B9A4213
:1011800001D2394A00E04E4A11F0005F01D05268A6
:1011900000E012684B4B1A400A4200D00120704711
:1011A0003C4A904201D2304800E04548454A11F09F
:1011B000005F01EA020101D0C160704781607047A1
:1011C00011F0800F09D022B1436943F080034361DD
:1011D00003E0436923F080034361802905D001F0D7
:1011E0001E011AB10268114301607047026822EAC9
:1011F0000101016070470023264A904201D21A4A39
:1012000000E02F4ADFF8C0C011EA0C0F07D04FF002
:101210001E0C0CEAD12C006800EA0C0002E04069C8
:1012200000F0800011F0005F01D0526800E0126809
:10123000DFF890C002EA0C020A4201D000B101239B
:1012400018467047134A904201D2074800E01C48F4
:101250001C4A11F0005F01EA020101D0C160704731
:1012600081607047106002400060024028600240C8
:101270004060024058600240706002403D00002023
:1012800088600240400F0020A060024000003D2026
:10129000B8600240106402400864024028640240C2
:1012A0004064024058640240706402400C64024092
:1012B00088640240A0640240B86402403F801CF091
:1012C000006402407D0F7D0F3C0F3C0F3949002028
:1012D0000860091D0860091D0860091D086037497C
:1012E000354808607047334A83790168002B34D051
:1012F000136823EA01011160111D0A6803689A430B
:101300000A60017901F1804101F59E310A680368A4
:101310001A430A602A4B19680268914319601A1D22
:101320001168D0F800C021EA0C0111604179102940
:1013300008D001F1804101F59E310A680068104330
:10134000086070471968D0F800C041EA0C011960C4
:1013500011680068084310607047007900F1804010
:1013600000F59E30026822EA010101607047002109
:10137000016001710C2242718171704711490A6844
:10138000104308607047014600200C4A12680A4268
:1013900000D00120704709490860704701460020CD
:1013A000064A12680A4200D00120704703490860CB
:1013B00070470000003C0140FFFF7F00143C0140EB
:1013C000083C0140103C014010B501218803FFF7A3
:1013D0002AF9BDE8104000214FF48040FFF723B9FF
:1013E0001549086070471549086270478A07120F4F
:1013F0000F23934021F0030101F1804101F5983161
:10140000D1F808C82CEA0303C1F80838D1F8083825
:1014100090401843C1F808087047094908607047B0
:1014200008490860704700200749096811F4807F67
:1014300000D0012070470000003801400000274222
:10144000DC002742000427422038014010B5A0F1FB
:101450008041B1F588312DD0A0F18041B1F58841AE
:1014600032D0A0F18041B1F5904138D0A0F1804157
:10147000B1F598413ED0A0F18041B1F5A04144D0F2
:10148000A0F18041B1F58A314AD0A0F18041B1F597
:10149000F0414FD0A0F18041B1F5F84155D1012183
:1014A000C807FFF7B4F8BDE8104000214FF0004036
:1014B000FFF7ADB801211020FFF7B5F80021BDE816
:1014C00010401020FFF7AFB801214804FFF79FF844
:1014D000BDE8104000214FF40030FFF798B801211B
:1014E0008804FFF794F8BDE8104000214FF48020F5
:1014F000FFF78DB80121C804FFF789F8BDE8104057
:1015000000214FF40020FFF782B801210805FFF702
:101510007EF8BDE8104000214FF48010FFF777B847
:1015200001212020FFF77FF80021BDE81040202096
:10153000FFF779B801218807FFF769F8BDE8104087
:1015400000214FF08040FFF762B810BD30B585B084
:1015500004460D46208A20F44050E9880843208242
:10156000A08920F4037020F4A050A9882A8911438F
:101570006A8910430843A081A08A20F44070A98999
:101580000843A0826846FEF74FFFA4F18040B0F503
:10159000883012D0A4F18040B0F58A300DD0029886
:1015A000A18911F4004F0AD000EBC00101EB00103B
:1015B00029684900B0FBF1F009E00398F0E700EB7F
:1015C000C00101EB001029688900B0FBF1F0A84AC6
:1015D000A2FB0031490909010B096FF0180C03FB4C
:1015E0000CF300EB8300A38913F4004F4FF0320398
:1015F00007D003EBC000A2FB0020C0F34210084359
:1016000006E003EB0010A2FB0020C0F343100843E8
:10161000208105B030BD4FF416510160002181805A
:10162000C18001810C22428181817047028A22F4AB
:1016300070620B88B1F802C043EA0C03B1F804C031
:10164000C9884CEA01011943114301827047002106
:10165000018041808180C1807047002904D0818948
:1016600041F4005181817047818921F400518181C9
:101670007047028B02F47F420283028B1143018385
:101680007047002904D0818941F40041818170476D
:101690008189C1F30E0181817047002904D0818ABC
:1016A00041F4006181827047818A21F40061818266
:1016B0007047C1F30801818070478088C0F308003B
:1016C0007047028A22F00F020282028A11430182CD
:1016D0007047002904D0818941F00201818170475F
:1016E000818921F0020181817047828922F40062A0
:1016F00082818289114381817047028A22F020020F
:101700000282028A114301827047002904D0018AB3
:1017100041F4804101827047018A21F480410182B5
:101720007047818941F0010181817047002904D00F
:10173000818A41F0080181827047818A21F0080185
:1017400081827047028BD2B20283028B42EA01216E
:1017500001837047002904D0818A41F020018182F1
:101760007047818A21F0200181827047002904D0CE
:10177000818A41F0100181827047818A21F0100135
:1017800081827047828A22F004028282828A114317
:1017900081827047002904D0818A41F00201818250
:1017A0007047818A21F0020181827047002A03D0AC
:1017B000828A114381827047828A22EA01018182F2
:1017C000704740F66A13C1F3421301F01F014FF056
:1017D000010C0CFA01F1012B07D0022B07D01430B9
:1017E0003AB102681143016070470C30F8E71030DD
:1017F000F6E7026822EA0101016070470246002014
:1018000012880A4200D00120704701F40072C943D7
:101810000180704710B44FF0000C40F66A12C1F31B
:10182000421301F01F02012404FA02F2012B0FD02F
:10183000022B10D0838A1A40090A04FA01F10088A9
:10184000084012B108B14FF0010C10BC604670475F
:1018500083891A40F0E7038A1A40EDE740F66A12DE
:10186000090A012202FA01F1C94301807047000010
:101870001F85EB51704710B582B00446002C0AD189
:10188000052003210023009101901A464FF4E04106
:10189000FE4800F019FC032C03D10521FC48FFF79A
:1018A000E9FF02B010BDF0B583B00446052503265C
:1018B000F84F002C08D100231A464FF460713846C7
:1018C0000096019500F000FC012C0FD100231A4670
:1018D000E10238460096019500F0F6FB00231A4617
:1018E000C021ED480096019500F0EEFB032C03D1DA
:1018F0000521EA48FFF7BEFF03B0F0BDF0B583B0A5
:10190000044605260325E64F002C07D100231A467E
:10191000642138460196009500F0D6FB012C08D1D1
:1019200000231A464FF4E04138460196009500F036
:10193000CBFB032C03D10521DA48FFF79BFF03B053
:10194000F0BD70B582B0044606260325002C07D1F1
:1019500000231A463821D4480196009500F0B4FBC4
:10196000012C08D100231A464FF4E051CF480196CC
:10197000009500F0A9FB032C03D10621CC48FFF70A
:1019800079FF02B070BDF0B583B00446C64F05269E
:101990000325002C0FD100231A463915384601962D
:1019A000009500F091FB00231A460C21BF480196D8
:1019B000009500F089FB012C08D100231A464FF452
:1019C000604138460196009500F07EFB022C07D15D
:1019D00000231A460D21B7480196009500F074FBCC
:1019E000032C03D10521B448FFF744FF03B0F0BD39
:1019F00070B582B0044605260325002C07D10023CC
:101A00001A46E021AD480196009500F05DFB012CDF
:101A100007D100231A463821A3480196009500F00B
:101A200053FB032C03D10521A548FFF723FF02B088
:101A300070BD2DE9FF4F85B00446DDF84C90DDF810
:101A4000488015469B466846FFF762F99D4F002681
:101A5000A4F18040B0F5983008D1386840F4805047
:101A600038600698FFF7C4FFADF80460DFF858A2AD
:101A7000A4F18040B0F560500AD1DAF8000040F4DB
:101A80008040CAF800000698FFF77DFFADF80460BB
:101A9000A4F18040B0F570500AD1DAF8000040F4AB
:101AA0000040CAF800000698FFF74BFFADF804604D
:101AB000A4F18040B0F59A3008D1386840F4005065
:101AC00038600698FFF71AFFADF80460A4F1804073
:101AD000B0F5A83008D1386840F480103860069816
:101AE000FFF7E1FEADF80460A4F18040B0F5AA3044
:101AF00008D1386840F4001038600698FFF7BBFE44
:101B0000ADF80460ADF80CB0ADF80060ADF80E9023
:101B1000ADF802804FF40070ADF80A0045B1012025
:101B2000012D0AD00221022D0CD0032D0FD012E07E
:101B3000ADF80660ADF808600DE0ADF80660ADF8F0
:101B4000080008E0ADF80610ADF8086003E0ADF855
:101B50000610ADF80800208820F04000208069467B
:101B60002046FFF731F8208840F04000208009B07F
:101B7000BDE8F08FF0B583B004460F46504800250D
:101B80004FF48276844206D1202300223946009603
:101B90000195FFF74EFF4848844206D120230022DA
:101BA000394600960195FFF744FF4148844206D12B
:101BB00020230022394600960195FFF73AFF394865
:101BC000844206D120230022394600960195FFF772
:101BD00030FF3248844206D1202300223946009645
:101BE0000195FFF726FF2A48844206D120230022D0
:101BF000394600960195FFF71CFF03B0F0BD2DE9B3
:101C0000F04182B004460F4690462D4800254FF41F
:101C10008276844206D120234246394600960195B9
:101C2000FFF707FF2448844206D120234246394665
:101C300000960195FFF7FDFE1D48844206D1202342
:101C40004246394600960195FFF7F3FE1548844257
:101C500006D120234246394600960195FFF7E9FE5A
:101C60000E48844206D1202342463946009601950B
:101C7000FFF7DFFE0648844206D12023424639465C
:101C800000960195FFF7D5FE02B01FE00018024054
:101C90000054014000140240001C0240005001406A
:101CA00000100240003401400004024000080240DD
:101CB000003C00400020024000380040000002408C
:101CC000003001404438024040380240BDE8F08115
:101CD0002DE9F04383B006460B9D0A9C89461746C2
:101CE0009846B748864206D13B464246494601954A
:101CF0000094FFF79EFEB348864206D13B4642461B
:101D0000494601950094FFF794FEAF48864206D1FC
:101D10003B464246494601950094FFF78AFEAB4890
:101D2000864206D13B464246494601950094FFF75C
:101D300080FEA748864206D13B4642464946019569
:101D40000094FFF776FEA348864206D13B46424602
:101D5000494601950094FFF76CFE03B0BDE8F0839F
:101D600030B585B004460D46002D25D06846FEF7F7
:101D70005BFBA4F18040B0F598301BD0A4F180400B
:101D8000B0F59A3016D0A4F18040B0F5A83011D04B
:101D9000A4F18040B0F5AA300CD0029B00200121B4
:101DA000421C01FA02FCB3FBFCFCAC4507D805B0B1
:101DB000C00030BD039BF1E705B0382030BDD0B284
:101DC0000828EDD305B0382030BD0288C2F3C02208
:101DD000038823F040030380012909D0018821F4FE
:101DE00000610180018841F0400101801046704788
:101DF000018841F400610180F4E710B4B0F800C03C
:101E00001CF0400F1FD0B0F808C01CF0030FFAD030
:101E1000B0F808C01CF0800FF5D14FF0000C002B7B
:101E200011D911F80C408481048914F0030FFBD000
:101E3000048914F0800FF7D1848902F80C400CF16A
:101E4000010C9C45EDD310BC7047038813F0400F84
:101E50001DD0038913F0030FFBD0038913F0800F0B
:101E6000F7D10023002A12D911F803C0A0F80CC042
:101E7000B0F808C01CF0030FFAD0B0F808C01CF08E
:101E8000800FF5D1B0F80CC05B1C9342ECD37047C7
:101E900010B4B0F800C01CF0400F1DD0B0F808C05E
:101EA0001CF0030FFAD0B0F808C01CF0800FF5D179
:101EB0004FF0000C002B0FD98281048914F0030F1E
:101EC000FBD0048914F0800FF7D1848901F80C400D
:101ED0000CF1010C9C45EFD310BC704710B4B0F866
:101EE00000C01CF0400F1FD0B0F808C01CF0030F5A
:101EF000FAD0B0F808C01CF0800FF5D14FF0000CFC
:101F0000002B11D931F81C408481048914F0030F8F
:101F1000FBD0048914F0800FF7D1848922F81C408B
:101F20000CF1010C9C45EDD310BC7047038813F0F5
:101F3000400F1DD0038913F0030FFBD0038913F06A
:101F4000800FF7D10023002A12D931F813C0A0F86E
:101F50000CC0B0F808C01CF0030FFAD0B0F808C0ED
:101F60001CF0800FF5D1B0F80CC05B1C9342ECD391
:101F7000704710B4B0F800C01CF0400F1DD0B0F88E
:101F800008C01CF0030FFAD0B0F808C01CF0800F96
:101F9000F5D14FF0000C002B0FD98281048914F089
:101FA000030FFBD0048914F0800FF7D1848921F846
:101FB0001C400CF1010C9C45EFD310BC7047000095
:101FC0000030014000380040003C00400034014037
:101FD0000050014000540140A0F50030C0F38F20B4
:101FE00070472DE9F04F0446DDF82880099F204610
:101FF000FFF7F2FFC6B200204FF0030E4FF0010CC6
:102000000CFA00F50D4238D0DFF8B8C23CF8169053
:1020100049EA05092CF81690D4F80CA04FEA400CB8
:102020000EFA0CF92AEA090A07FA0CFB4AEA0B0A2B
:10203000C4F80CA0D4F800A002FA0CFB2AEA090AA2
:102040004AEA0B0AC4F800A0012A01D0022A14D1DE
:10205000D4F804A0ADB22AEA050503FA00FA1FFA83
:102060008AFA45EA0A056560A56808FA0CFC25EAC3
:10207000090545EA0C0CC4F808C0401CC0B2102881
:10208000BCD3BDE8F08F00B5FFF7A6FF012181406A
:102090008D4802681143016000BD2DE9F04182B016
:1020A0000746099D089C0E469046002E09D03846EA
:1020B000FFF7E9FF42463146384601950094FFF7A5
:1020C00090FF02B0BDE8F0812DE9F04F82B080466C
:1020D000DDF82C900C9F0E469246002E28D04046EC
:1020E000FFF7D1FF4FF0000C01200F2100FA0CF296
:1020F00032420FD04FEADC0208EB8204226A4FEA38
:102100004C75ED0E01FA05FB22EA0B0207FA05F504
:102110002A4322620CF1010CBCF1100FE6D30093AC
:10212000CDF804905346022231464046FFF759FF4E
:1021300002B0BDE8F08F2DE9F04104462046FFF7DC
:102140004BFF00F0FF0C002201255E48032605FA34
:1021500002F30B420DD027684FEA420806FA08F84E
:1021600047EA0807276030F81C7027EA030320F8C5
:102170001C30521CD2B2102AE9D3BDE8F08130B431
:10218000002201234FF0030C03FA02F40C4205D0A5
:10219000046855000CFA05F5AC430460521CD2B239
:1021A000102AF1D330BC704770B400224FF0010CFC
:1021B00003240CFA02F30B4208D00568530004FA1A
:1021C00003F6B5430CFA03F32B430360521CD2B25F
:1021D000102AEED370BC704730B4002201234FF0B8
:1021E000030C03FA02F40C4205D0046855000CFA03
:1021F00005F52C430460521CD2B2102AF1D330BC36
:102200007047F0B4002203244FF0010C02250CFAB1
:1022100002F30B4208D00668530004FA03F7BE43EA
:1022200005FA03F333430360521CD2B2102AEED3F3
:10223000F0BC7047F0B400230125032405FA03FC29
:102240001CEA010F0BD0C6684FEA430C04FA0CF7E6
:10225000BE4302FA0CFC46EA0C0CC0F80CC05B1C36
:10226000DBB2102BEAD3F0BC704741F48032C2617C
:10227000C161C261C169C06970470021012804D9E8
:10228000491C89B240080128FAD80846704700B5B1
:10229000FFF7A2FE012181400B48026822EA0101FA
:1022A000016000BD00B5FFF797FE064931F8100048
:1022B00000BD00B5FFF790FE024931F81000C043A1
:1022C00080B200BD10010020303802402DE9F041FD
:1022D00063484168491C41608168002902D08168D7
:1022E000491E8160AFF3008000245E4E30780028E4
:1022F0001BD9002706EB8405686888B1017B79B19A
:10230000816869B14A1E826069684AB94869096989
:1023100088476868016881606868416801B9077327
:10232000601CC4B23078A042E4D8BDE8F0814E48C9
:102330004FF47A710068B0FBF1F1491EB1F1807F72
:1023400001D301210AE04FF0E0225161474BF02117
:1023500019700021916107211161002101B1FEE78F
:102360004349B0FBF1F13E48C16001210170704763
:102370003B480078002805D04FF0E020016941F08B
:102380000201016170474FF0E020016921F0020174
:10239000016170472DE9F0470446089D0F469046BD
:1023A0009946304E3078052802D30020BDE8F087EA
:1023B000182002F004F878B104608460476080F867
:1023C0000C80C0F81090456131784A1C06EB810101
:1023D00032704860BDE8F0870020BDE8F08730B477
:1023E0000021204B1A78002A09D903EB810CDCF874
:1023F00004C0844503D0491CC9B28A42F5D88A4238
:102400001ED003EB81004068EFF3108C72B6521EB1
:102410008A420BDD4A1C03EB820403EB81016468F2
:102420004C60D1B21A78521E8A42F3DC1978491EE8
:102430001970BCF1000F00D162B630BC01F0EEBFE4
:1024400030BC704700210173704701210173704750
:10245000016881607047416070470160704700000B
:102460001000002028010020B800002023ED00E02B
:10247000C0C62D007F4A804B904207D27F4ADFF8CA
:1024800000C26044A3FB0030000906E07D4ADFF88B
:10249000F8C16044A3FB00300009042801D3121DD9
:1024A000001F7A4B01F03D01185C01FA00F010604A
:1024B00070473D21DEE76F496F4A884206D2744972
:1024C0006F4B1844A2FB0020000905E071496E4BD8
:1024D0001844A2FB00200009042801D3091D001F95
:1024E00009686A4A105C21FA00F000F03D0070476C
:1024F00038B504463D212046FFF7BCFF5D4B5E48E2
:10250000654901229C420AD25D4B2344A0FB033063
:1025100000098DF80120095C8DF800100AE05A4B83
:102520002344A0FB033000098DF801200144097AFF
:102530008DF800108DF803208DF802006846FEF734
:1025400080FA206840F01E002060606940F0800042
:10255000606138BD10B504463D212046FFF78AFF73
:10256000444A45484C49944206D2454A2244A0FB7D
:1025700002200009085605E0434A2244A0FB02203D
:1025800000090856012200F01F0102FA01F140097A
:10259000800000F1E020C0F88011206820F01E00CB
:1025A0002060606900F08000606110BD7047704776
:1025B00070477047704770B505463D212846FFF7C4
:1025C0007AFF84B23D212846FFF754FF14F0200F14
:1025D00006D0286810F0100F02D02846FFF7E6FF5B
:1025E00014F0100F06D0286810F0080F02D028460B
:1025F000FFF7DDFF14F0080F06D0286810F0040F75
:1026000002D02846FFF7D4FF14F0040F06D0286844
:1026100010F0020F02D02846FFF7CBFF14F0010F95
:1026200006D0686910F0800F02D02846FFF7C2FF7D
:1026300070BD1A48BFE71A48BDE71A48BBE71A48F9
:10264000B9E71A48B7E71A48B5E71A48B3E71A488E
:10265000B1E70848AFE71948ADE71948ABE71948B3
:10266000A9E71948A7E71948A5E71948A3E71948B2
:10267000A1E7000010640240ABAAAAAA08600240C9
:10268000F09FFDBF08640240F09BFDBFDE720008B2
:102690000060024000640240E272000810600240E4
:1026A0002860024040600240586002407060024072
:1026B00088600240A0600240B86002402864024086
:1026C00040640240586402407064024088640240E2
:1026D000A0640240B864024000B583B0002103202A
:1026E0000B46022200910190D1013648FFF7D5FC3C
:1026F00003B000BD00B583B0002103200B460222C9
:102700000091019011023048FFF7C7FC03B000BDF3
:1027100070B50024002505290FD2DFE801F00E0373
:1027200006090C004FF0806407E04FF0A06404E05D
:102730004FF0C06401E04FF0E064A0B1012804D084
:1027400002280BD003280ED105E04FF480050120AC
:10275000FDF7BEFD07E04FF4C00504E04FF400159F
:102760000120FDF7F4FD21462846BDE87040FDF745
:1027700029BE052911D2DFE801F00305080B0E0080
:1027800000210AE04FF0005107E04FF0205104E033
:102790004FF0405101E04FF0605130B1012806D0B8
:1027A000022807D003280AD107E0002207E04FF0F3
:1027B000804204E04FF0004201E04FF040421046FA
:1027C000FDF708BE0000024000080240A0F1804270
:1027D000B2F5883200D10021A0F18042B2F58842E2
:1027E00000D10121A0F18042B2F5904200D1022136
:1027F000A0F18042B2F5984200D10421A0F18042BC
:10280000B2F5A04200D10521A0F18042B2F58A3292
:1028100000D1062108467047704770B582B0044663
:1028200008260325002C07D101230022C021FE48E1
:1028300001960095FFF748FC012C08D101230022E6
:102840004FF48441F94801960095FFF73DFC032CB5
:1028500003D10821F648FFF7DFFF02B070BD70B565
:1028600082B00446002C11D1082503260123002242
:102870001903ED4800960195FFF726FC012300227D
:102880000421EC4800960195FFF71EFC032C03D1B0
:102890000821E948FFF7C0FF02B070BD70B582B0F3
:1028A000044608260325002C07D10123002203211A
:1028B000E24801960095FFF707FC012C08D101239F
:1028C00000224FF44061D84801960095FFF7FCFBC9
:1028D000032C03D10821DA48FFF79EFF02B070BD38
:1028E00070B582B0044607250326002C07D10123CA
:1028F0000022B102D34800960195FFF7E5FB012CB9
:1029000008D1012300224FF44061C7480096019589
:10291000FFF7DAFB022C08D1012300224FF44071AB
:10292000C44800960195FFF7CFFB032C03D1072184
:10293000C548FFF771FF02B070BD70B582B00446A4
:1029400007260325002C07D1012300220C21BB48B8
:1029500001960095FFF7B8FB012C07D10123002257
:102960006021B44801960095FFF7AEFB032C03D11C
:102970000721B648FFF750FF02B070BD70B582B0B6
:10298000044607260325002C07D1012300226902F3
:10299000AA4801960095FFF797FB012C07D1012368
:1029A0000022C021A74801960095FFF78DFB032C5C
:1029B00003D10721A648FFF72FFF02B070BDA0F199
:1029C0008042B2F5883200D1A249A0F18042B2F52E
:1029D000884200D1A049A0F18042B2F5904200D1D6
:1029E0009E49A0F18042B2F5984200D19C49A0F1E5
:1029F0008042B2F5A04200D19A49A0F18042B2F5DE
:102A00008A3200D19849084670472DE9FF4F87B0B8
:102A100014AF044697E8800715462046FFF7CFFF1E
:102A200006460295DFF844B2A4F18040B0F5883044
:102A30000BD1DBF8000040F01000CBF80000089844
:102A4000FFF79CFF25208DF80400894DA4F18040FC
:102A5000B0F5884009D1286840F400302860089813
:102A6000FFF76BFF26208DF80400A4F18040B0F53D
:102A7000904009D1286840F4802028600898FFF72A
:102A80002FFF27208DF80400A4F18040B0F5984076
:102A900009D1286840F4002028600898FFF7FEFE5E
:102AA00034208DF80400A4F18040B0F5A04009D195
:102AB000286840F4801028600898FFF7D0FE352081
:102AC0008DF80400A4F18040B0F58A300BD1DBF81A
:102AD000000040F02000CBF800000898FFF79DFEB2
:102AE00047208DF804002046FEF7B0FC01258DF844
:102AF000075006208DF805002046FFF767FE8DF889
:102B0000060001A8FDF79DFF0A98ADF81400ADF886
:102B10001270ADF81080ADF80E90ADF80CA000204A
:102B2000307340F6FF7000900098411E0091FBD278
:102B300002A92046FEF70AFDA08940F02000A081EE
:102B40003573A08940F40050A0810BB0BDE8F08F30
:102B50002DE9F04184B004460F4690463C480025DC
:102B60000C26844208D1019502950023424639463D
:102B700000960395FFF749FF3448844208D1019538
:102B8000029500234246394600960395FFF73DFF24
:102B90002D48844208D101950295002342463946CA
:102BA00000960395FFF731FF2548844208D101952F
:102BB000029500234246394600960395FFF725FF0C
:102BC0001D48844208D101950295002342463946AA
:102BD00000960395FFF719FF1548844208D1019527
:102BE000029500234246394600960395FFF70DFFF4
:102BF00004B0BDE8F0812DE9F04385B004460F46EE
:102C000090469946124800250C26844208D1019529
:102C100002954B464246394600960395FFF7F5FE6E
:102C20000A4884422FD125E00008024000180240E3
:102C300000140140000C024000500040000002401F
:102C4000004C0040000402400048004000440040A6
:102C50000010014020000020300000204000002033
:102C60005000002060000020700000204438024026
:102C700040380240019502954B464246394600963F
:102C80000395FFF7C2FE9D48844208D10195029545
:102C90004B464246394600960395FFF7B6FE9848E4
:102CA000844208D1019502954B464246394600962A
:102CB0000395FFF7AAFE9348844208D10195029537
:102CC0004B464246394600960395FFF79EFE8E48D6
:102CD000844208D1019502954B46424639460096FA
:102CE0000395FFF792FE05B0BDE8F08300B5002321
:102CF000FFF765FEC18821B90289B0F80AC06245B4
:102D00000DD0428983889A4201D100224281036812
:102D100042899B56521C428109B1491EC180D8B2DA
:102D200000BD10B50C46FFF74AFEC388428983B147
:102D3000B0F804C00068944500D10022815CA14233
:102D400001D1012010BD511C8AB2591E8BB2002B3B
:102D5000F1D1002010BD2DE9F04180460E46174606
:102D600000244046FFF72BFE0546E88840B1697B0A
:102D70004046FFF7D6FF30B9E888A988884202D0DC
:102D80000020BDE8F0817F1E002F0ADD4046FFF7DE
:102D9000ADFF3055697B884203D0601C84B2BC42D1
:102DA000F4DB0021601C80B23154BDE8F08100B535
:102DB000FFF705FEC18829B901894089814201D107
:102DC000012000BD002000BD00B5FFF7F8FDC1885F
:102DD0008088814201D1012000BD002000BD00B5E6
:102DE000FFF7EDFD0021C1800181418100BD00B5EB
:102DF0000B46FFF7E4FD437300BD10B503460C46D8
:102E00001846FFF7DCFD007B002810D02078002852
:102E10000DD0188810F0800FFBD014F8010B9880AB
:102E2000188810F0800FFBD020780028F1D110BD59
:102E300030B503460D4614461846FFF7C0FD007B2B
:102E4000002812D00020002C0FD9B3F800C01CF0CD
:102E5000800FFAD0295C9980B3F800C01CF0800F75
:102E6000FAD0401C80B2A042EFD330BDC388828824
:102E700093420DD20389934201D10022028103893A
:102E80000268D1540189491C0181C188491CC18053
:102E900070471E48018811F0200F03D08088C1B20E
:102EA0001B48E3E770471B48008810F0200F04D050
:102EB00019480088C1B21948D8E7704710480088FF
:102EC00010F0200F04D016480088C1B21548CDE795
:102ED00070470C48018811F0200F03D08088C1B2E0
:102EE0001148C3E770470848008810F0200F04D04D
:102EF0000E480088C1B20E48B8E77047004800404D
:102F0000004C0040005000400014014000100140FF
:102F10002000002000440040044400403000002015
:102F2000044C0040500000206000002004140140C8
:102F300070000020A0F18042B2F5883200D15649DD
:102F4000A0F18042B2F5884200D15449A0F18042FC
:102F5000B2F5904200D15249A0F18042B2F59842B8
:102F600000D15049A0F18042B2F5A04200D14E49B3
:102F7000A0F18042B2F58A3200D14C490846704730
:102F800010B5FFF7D7FF4A4B42684A499A4204D32B
:102F90000A6842F480020A6003E00A6842F4001200
:102FA0000A604068FFF785FA43484021C16000216C
:102FB00041614FF480628261C1610162416281625C
:102FC000C162032202634163816310BD70B506468E
:102FD0000C4615463046FFF7ADFF446005603046AD
:102FE000BDE87040CCE710B5FFF7A4FF406810BD06
:102FF00010B5FFF79FFF4068BDE81040FDF77CBFAC
:103000002DE9F04105460F4616462846FFF792FF88
:1030100004466068406810B10020BDE8F081264891
:10302000216801600661291D416087606068FFF7C3
:1030300040FA21496068FDF7F6FF6068016841F0D9
:1030400001010160A88A40F08000A8820120BDE84B
:10305000F08170B505460C46204601F0AFFA82B209
:1030600021462846BDE87040CAE710B5FFF762FF69
:1030700040684068C0B210BD10B5FFF75BFF406804
:10308000BDE81040FFF734BA10B5FFF753FF4068B2
:10309000BDE81040FFF75EBA8000002088000020E5
:1030A0009000002098000020A0000020A800002030
:1030B000106402403038024000020020000000008E
:1030C00030B583B000210846FEF790F90125009540
:1030D00000248DF8044010208DF805008DF806506E
:1030E0006846FEF700F906208DF808008DF80940C3
:1030F0008DF80A408DF80B5002A8FDF7A2FC03B032
:1031000030BD10B50120FEF749F9002818D0F94C60
:1031100001212046FDF758FC18B1F749012008802D
:1031200009E001212046FDF74FFC20B90122F349B7
:10313000F34801F00BF8BDE810400120FEF736B966
:1031400010BD10B540F22551EE48FEF763FB002894
:103150000ED0ED480088C0B200210123EB4A24289C
:1031600007D0232808D0EA4B51685854481C5060B7
:1031700010BD5160537010BD50780028FBD05170C5
:10318000137010BD70B52DED028BE14BDD4C184670
:103190001A78817840783038302A02D0312A2AD003
:1031A00082E000EB80006FF02F0202EB40000D1870
:1031B000A5F1140015280DD32A46D649D64801F0AA
:1031C00055F9D54801F0FAF982B2D3492046FFF704
:1031D00017FF69E02A46D1A1CF4801F047F9CE4850
:1031E00001F0ECF982B2CC492046FFF709FF2846EE
:1031F00000F049FC58E000EE100AA1F13000B8EEF2
:10320000C08A00EE100AB8EEC00ADFEDCE0AD87808
:1032100000EE208A303800EE100AB8EEC00ADFED6A
:10322000CA0A187900EE208A303800EE100AB8EE8B
:10323000C00ADFEDC60A00EE208AB5EEC08AF1EEC4
:1032400010FA04D318EE100AB0F17E5F14DD18EE08
:10325000100A03F0C7FF41EC100BBD4953EC102BD3
:10326000AD4801F003F9AC4801F0A8F982B2AA49CF
:103270002046FFF7C5FE17E0B0EE480A00F03EFC1E
:1032800018EE100A03F0AEFF41EC100BB1A153ECA5
:10329000102BA14801F0EAF89F4801F08FF982B2A3
:1032A0009D492046FFF7ACFE984900200870BDEC10
:1032B000028B70BD08B5012240F225519148FEF7FE
:1032C00080FA27208DF8000001208DF803000020EF
:1032D0008DF801008DF802006846FDF7B2FB08BDCD
:1032E0008A4900200870487048606421884801F0CD
:1032F00084B9F0B58FB09F48016841F48001016046
:103300006846FDF7CCFE0920049000240B940C9431
:103310000D9408944FF480600690099496480190AB
:103320000E94079405944FF400300A90934F3D217A
:103330003846FFF79FF84FF0C06600964020039094
:1033400000F06BFF029069463846FDF76CFE8C4D2D
:103350003D212846FFF78EF80096039400F05FFFAA
:10336000029069462846FDF75EFE286840F001009D
:103370002860386840F0010038606148818841F079
:10338000030181800FB0F0BD70B588B001210846FF
:10339000FDF7DDF8E020069002208DF81C000024E7
:1033A0008DF81E4003258DF81D508DF81F40514E9D
:1033B00006A93046FDF7A6FA052211463046FDF76C
:1033C00027FB052206213046FDF722FB05220721B7
:1033D0003046FDF71DFB01210220FDF7B8F8012062
:1033E00006908DF81C008DF81E408DF81D508DF84C
:1033F0001F0006A94148FDF785FA3F48018841F0C2
:103400000101018001218014FDF7D1F801A8FDF729
:103410007FFCADF804404FF48270ADF80600ADF8C3
:103420000840ADF80A40ADF80C402802ADF80E0097
:10343000ADF81040ADF81240314C01A92046FDF71F
:10344000C3FB208820F04000208001A92046FDF722
:10345000BBFB208840F04000208008B070BD82B0E7
:1034600000F0CAF9FEF763FFFFF744F900210220DC
:10347000FFF77FF9FFF788FFFFF73BFF00200324EA
:10348000034602460090012101941A48FEF705FE0A
:1034900002261A4F00230122314638460096019435
:1034A000FEF7FBFDDFF85C804FF4E132022140467D
:1034B000FFF74EFB4046FFF763FD32A1164800F0D0
:1034C000D5FF154801F07AF882B213494046FFF75C
:1034D00097FD4FF00502334C20680190EFF3058013
:1034E0004FF0E02528B920680199401A9042FAD39C
:1034F00061E059E00000024018040240000402406C
:10350000003001400048004004480040B000002066
:103510003C02002098750008A00200204368616EFC
:1035200067696E672070696E676572206672657183
:1035300075656E637920746F202564206B487A0A64
:103540000D000000CDCCCC3D0AD7233C6F12833A4E
:103550004C7500084368616E67696E672074687215
:103560006573686F6C6420746F20256620560A0DA1
:1035700000000000303802400C3001405864024026
:1035800040640240555341525433206861732062B5
:1035900065656E20696E697469616C697A65640A33
:1035A0000D00000014000020286910F4803F00D0B6
:1035B000521E002AF8D11E2249A14F4800F056FFA2
:1035C0004D4800F0FBFF82B24B494046FFF718FD23
:1035D0004FF0050220680190EFF3058028B92068BC
:1035E0000199401A9042FAD306E0286910F4803F0E
:1035F00000D0521E002AF8D19FED410B42A153EC9E
:10360000102B3D4800F032FF3B4800F0D7FF82B25C
:1036100039494046FFF7F4FC414C01202080A01CB2
:103620000680012239463F4800F08AFC2680FFF7D9
:1036300057FEFFF73FFE1E2000F025FA1FED3E0A61
:1036400000F05CFAFFF73CFD374C207808B1FFF73B
:1036500099FD00F0E6FDF8E730B587B001210820BC
:10366000FCF775FF01218804FCF771FF2F4D07223D
:103670004FF480712846FDF7CBF9072269152846DB
:10368000FDF7C6F902218DF8041003218DF805100D
:1036900000248DF8064001218DF8071009020091E1
:1036A00069462846FDF72EF96915009169462846B6
:1036B000FDF728F94FF416500290ADF80C40ADF824
:1036C0000E40ADF81040ADF814400C20ADF81200DB
:1036D00002A91748FDF73AFF07B030BD000000000F
:1036E0004C6F6F6B696E6720666F72202564206B6C
:1036F000487A0A0D00000000A0020020000000002F
:1037000000000040E17A843F54726967676572691E
:103710006E67206F6E3A20256620560A0D00000065
:103720001804024000300140B0000020000C0240AC
:10373000004800407047FEE7FEE7FEE7FEE77047FF
:1037400070477047704710B5FEF7C0FD10BD000010
:1037500082B00022019200925849086840F48030FB
:103760000860086800F4003000900198401C019047
:10377000009818B90198B0F5A04FF2D1086810F47C
:10378000003F02D00120009000E000920098012844
:1037900030D14B48026842F08052026049480268CA
:1037A00042F440420260484802680260026842F403
:1037B00000420260026842F4A0520260021F434BC2
:1037C00013600A6842F080720A600A6812F0007F93
:1037D000FBD03F4A40F205711160016821F00301FE
:1037E0000160016841F002010160016801F00C0113
:1037F0000829FAD102B0704710B53648016841F483
:10380000700101602D48016841F0010101602E4AFC
:1038100000211160026822F4102222F080720260FE
:10382000031D2D4A1A60026822F4802202602B4890
:103830000160FFF78DFF2A494FF00060086010BD5E
:1038400010B4214C206800F00C00264A26490028BC
:103850000FD004280FD008280FD00A602068C0F3CA
:1038600003122248805C0A6822FA00F0086010BC4B
:1038700070470A60F2E70A60F0E71D4B1868C0F372
:10388000805C186800F03F00BCF1000F06D0B2FB6E
:10389000F0F01A68C2F38812504305E0B2FBF0F072
:1038A0001A68C2F3881250431A68C2F30142521CCC
:1038B0005200B0FBF2F00860D0E700000038024090
:1038C0004038024000700040083802401050400765
:1038D000003C024088ED00E0103000240C3802402B
:1038E00008ED00E00024F400B8000020BC00002037
:1038F00004380240000000002DE9F0412DED048B5A
:1039000000249FEDFD9AFD4E9FEDFD8BFE4F07F5C8
:10391000DE78650000EE105AB8EEC00A60EE090AC3
:1039200096ED040AB8EEC00A20EE800A10EE100AE6
:1039300003F058FC53EC182B02F0E2FF41EC100BA3
:1039400002F00EFA51EC100B02F000FF47F82400D1
:1039500000EE105AB8EEC00A60EE090A96ED040AAD
:10396000B8EEC00A20EE800A10EE100A03F03AFC0E
:1039700053EC182B02F0C4FF41EC100B02F08CF951
:1039800051EC100B02F0E2FE48F82400641C6F2C8E
:10399000BFDBBDEC048BBDE8F08100219FEDDB0AAD
:1039A00000EB810282ED000A491C6F29F8DB80EDF3
:1039B000710A80ED700AD14980ED6F0A0020C8615C
:1039C0007047CE4990ED711AC96900EB8102D2EDC2
:1039D000000A00EEE01A80ED711AD2ED000A70EED6
:1039E000600AC94B90ED6F1A03EB8103D3ED001A07
:1039F00000EEA11A80ED6F1AC54B90ED701A03EB23
:103A00008101D1ED001A00EEA11A80ED701A82ED4D
:103A1000000AD0ED710A40EE000AC0ED710A70474D
:103A200090ED6F0AD0ED700A20EE000A00EEA00AB9
:103A3000704790ED710ADFEDB70A20EE200AF6EE2E
:103A4000000A20EE200A704710B504462DED028BC7
:103A5000D4F8C00103F0C6FB41EC180BD4F8BC014C
:103A600003F0C0FB41EC100BB0EE481AF0EE681A00
:103A700002F01AF851EC100B02F068FEBDEC028B5C
:103A800000EE100A10BD10B54FF47A7100FB01F280
:103A90009A490A61A0F5C240A8380CD0A0F5985008
:103AA00088380DD0A0F5985088380ED0A0F59850E1
:103AB000883813D10EE09FED980A81ED010A0DE0E0
:103AC0009FED960A81ED010A08E09FED950A81EDD0
:103AD000010A03E09FED930A81ED010AFFF70CFF55
:103AE0000023914CC3EBC300C0EB831004EBC00078
:103AF000FFF753FF5B1C042BF4DB10BD7F4880ED08
:103B0000060A60EE000A9FED830A60EE800A20EE4E
:103B1000800AF5EE000A20EE200A80ED050A7047C3
:103B2000764880ED010A70472DE9F34F2DED040B27
:103B30002DED028BA3B0714EF068002806D0002056
:103B400023B0BDEC028B06B0BDE8F08F0120F06021
:103B50008DED180ACDED190A8DED1A1ACDED1B1A4F
:103B60000024714D18AF07EB840090ED000AC4EB00
:103B7000C400C0EB841005EBC000FFF722FF641CFB
:103B8000042CF0DBF069401CF06100276F2800D1A5
:103B9000F7616548FFF744FFB0EE408AB068411C0A
:103BA000B160307830B1012811D0022840F048814E
:103BB00000F040B996ED050AB4EEC08AF1EE10FAB5
:103BC00040F33E8101203070B76000F039B900EE5B
:103BD000101A5649B8EEC00A10EE100A884240F397
:103BE0002F815148FFF725FF96ED050AB4EEC08AF4
:103BF000F1EE10FA40F30F8100240DF15008C4EBF0
:103C0000C400C0EB841005EBC000FFF71DFF08EBFC
:103C1000840080ED000A641C042CF0DB0020DFF837
:103C200010C1444C1CAB9FED440A411CCA1701EB68
:103C3000927222F00302891A08EB8101D1ED000A89
:103C400008EB800191ED001A03EB800171EE600A30
:103C5000C1ED000A10EE902A624503DD70EEC00A45
:103C6000C1ED000AD1ED000A10EE902AA24203D95C
:103C700070EE800AC1ED000A401C0428D5DB9DEDE2
:103C80001F0ADDED1D0A9FED2D2ADFED2D1A30EE06
:103C9000600A96ED011A60EE022A96ED040AF8EE2B
:103CA000C00A60EEA10A20EE813AC2EE830ACDED91
:103CB000200AB8EEC00ADDED1C2A9DED1E3A20EE6A
:103CC000210A72EEC32A20EE010A22EE822A82EE37
:103CD000001A8DED211AB7EE000A00EEE00A01EE9F
:103CE000410A8DED220AB5EEC00AF1EE10FA01D2BA
:103CF0009FED060A26E00000DB0F4940CC000020C3
:103D0000000000008019FB400403002000000000B8
:103D1000C00400200000DE429A99193F3333333F3C
:103D2000CDCC4C3F6666663F7C0600200100DE423B
:103D3000DB0F4940DB0F49C0DB0FC9403339644713
:103D4000DB0F494110EE100A03F04CFA41EC100B66
:103D500002F06AF851EC100B02F0F8FC22903A499C
:103D600002200870002088600023C3EBC300C0EB72
:103D7000831005EBC000FFF710FE5B1C042BF4DB87
:103D800018EE100A03F02EFA04460D461F9803F0B1
:103D900029FA82468B461E9803F024FA06460F46FF
:103DA0001D9803F01FFA129013911C9803F01AFA51
:103DB00010901191229803F015FA0E900F9121980E
:103DC00003F010FA80468946209803F00BFA41EC84
:103DD000100B08A853EC102BA0E8C00C13990D95FC
:103DE0000C941298079111990690109805910490DF
:103DF0000F990E98CDF8049003910290CDF80080B1
:103E000012A1299800F032FB0F490020C8602A99BE
:103E10000120087094E63770B7600023C3EBC3003D
:103E2000C0EB831005EBC000FFF7B7FD5B1C042B54
:103E3000F4DB05E046F66640814201DD3770B7608D
:103E4000F76000207CE60000CC00002024256620DE
:103E500025662025662025662025662025662025E6
:103E600066202566230A0D0070B51646049C059A47
:103E70000D46DFF81CC499008CF800100123012ABC
:103E800007D9E11811F8011C0CF803105B1C9342D0
:103E9000F7D36E83FE49FDF7D8FF2E8370BD2DE961
:103EA000F0410E46069D079C1746F94A022141EA59
:103EB0008301117077832346F64AF549FDF79DFF8C
:103EC00037830120012C07D9F2492B180A5C03F82B
:103ED000012C401CA042F8D3BDE8F08110B40023AF
:103EE000012A0BD0521E10F803C0CC5CA44502D0AE
:103EF00010BC002070475B1C9342F4D310BC01201F
:103F0000704710B50921E44800F099FBE34800210F
:103F10004180E14B02221A20187003F10900017060
:103F20000121417082700321C170042101710521BA
:103F30004171062181710721C1710821017210BDF3
:103F40002DE9F04F85B0804689469246FFF7D9FFAC
:103F5000D24800250570457045800324E0208DF887
:103F6000100080208DF81100082704AE3B46524611
:103F70004946404600960194FFF776FF012000F085
:103F8000E9F98DF80C508DF80D500DF10C0B3B46F6
:103F9000524649464046CDF800B00194FFF77FFFF6
:103FA000012000F0D7F9224603A904A8FFF796FFE5
:103FB000002800F0BF8006208DF810001B208DF82F
:103FC00011000C273B465246494640460096019454
:103FD000FFF74AFF012000F0BDF98DF80C508DF875
:103FE0000D503B46524649464046CDF800B001943C
:103FF000FFF755FF012000F0ADF9224603A904A800
:10400000FFF76CFF00287DD00D273B4652464946FE
:10401000404600960194FFF727FF012000F09AF92F
:104020008DF80C508DF80D503B465246494640469F
:10403000CDF800B00194FFF732FF012000F08AF9BB
:10404000224603A904A8FFF749FF002876D00E27CF
:104050003B4652464946404600960194FFF704FF0E
:10406000012000F077F98DF80C508DF80D503B468B
:10407000524649464046CDF800B00194FFF70FFF85
:10408000012000F067F9224603A904A8FFF726FFE4
:10409000002855D00F273B465246494640460096D9
:1040A0000194FFF7E1FE012000F054F98DF80C5067
:1040B0008DF80D503B46524649464046CDF800B07B
:1040C0000194FFF7ECFE012000F044F9224603A919
:1040D00004A8FFF703FF60B38DF810508DF811505E
:1040E00010273B4652464946404600960194FFF74A
:1040F000BBFE012000F02EF98DF80C508DF80D500C
:104100003B4600E018E0524649464046CDF800B034
:104110000194FFF7C4FE012000F01CF9224603A918
:1041200004A8FFF7DBFE78B1012005B0BDE8F08FF1
:1041300004E007E00020F8E70020F6E70020F4E7BD
:104140000020F2E70020F0E70020EEE770B5164609
:10415000534988784A7840EA02235048C3800A7954
:10416000CB7842EA032202818A794B7942EA032220
:1041700042810A7AC97942EA0121818101210170D3
:104180000189484A438822F813104188491C41801C
:104190004188B1F57A7F01D100214180424C4FF036
:1041A00081512046FCF7FCFF404D4FF0C05128469E
:1041B000FCF7F6FF3E480680206840F001002060D2
:1041C000286840F001002860012271213948FCF77D
:1041D0004FFE012070BD10B584B04FF0030C0123D9
:1041E00002ACCDF804C00094FFF759FE9DF8090019
:1041F0009DF808102B4A40EA01212848438822F8FC
:1042000013104188491C41804188B1F57A7F01D162
:104210000021418004B0012010BD1F487047204894
:10422000704770B51D4C207800287CD022484FF490
:1042300000760680B4F9060000EE100AF8EEC00A17
:104240009FED1E0A60EE800AC4ED050AB4F908006D
:1042500000EE900AF8EEE00A60EE800AC4ED060A6D
:10426000B4F90A0000EE900AF8EEE00A60EE800A67
:10427000C4ED070AB4F90C0000EE900AF8EEE00A6B
:1042800020EE800A84ED080A94ED050A0C4819E036
:10429000FA0000209C0D0020F8530020EC000020C4
:1042A00001540020A60D00204064024058640240E2
:1042B0001A040240003001401A0C0240ECFF1F3883
:1042C00078150020A18800EB810080ED000A94EDB4
:1042D000060A2E48A18800EB810080ED000A94EDCB
:1042E000070A2B48A18800EB810080ED000A94EDBD
:1042F000080A2848A18800EB810080ED000AA08808
:10430000401CA080A0880025B0F57A7F00D1A58050
:1043100021492248D4ED081A94ED071AD4ED060A73
:1043200094ED050A00E014E0FFF7FEFB607868B149
:104330001A4901F1C80000F01DF9194800F03EF9D2
:1043400082B217491748FEF75BFE65701648068073
:10435000257070BD81B015490A680092EFF305829F
:1043600062B1002808D04FF0E0210A6912F4803FC2
:1043700000D0401E0028F8D101B070470A68009BA9
:10438000D21A8242FAD301B07047000018250020EB
:10439000B834002058440020ED0000200A540020CA
:1043A000D254002000480040180C024014000020A5
:1043B00070474FF0FF3070477047FEE7704770B5A9
:1043C000064600F067F9056806F10B0020F00704C7
:1043D000B4429CBF002070BD2B466A68BAB1106819
:1043E000A04210D304F1080188423CBF50685860D5
:1043F00007D35168101941601168091B01605860AA
:104400001460101D70BD13465268002AE7D1214682
:10441000284600F047F90028DED170BD70B504468B
:10442000051F00F037F90068002C14BF446870BD08
:10443000002C18BFAC423CBF20466468F8D301682A
:104440000A18AA4218BF456003D12A6805461144DC
:10445000016028684119A1421CBF6C6070BD616891
:10446000696021680844286070BD00000FB41CB565
:10447000074B06AA7B4469460090059800F0D5FBDF
:104480000020694600F0E4FB1CBC5DF814FB000052
:10449000D90700002DE9F0410E46044600202062B5
:1044A0002046E168884730B3252805D0D4E90121AA
:1044B0009047206A401CF2E7E168204600278847C1
:1044C000050018D0A5F14100192802D820354FF475
:1044D00000673246294620462760FBF78FFE40B131
:1044E000012804D0F61D26F007060836D8E7361D49
:1044F000D6E72846DAE7206ABDE8F0812DE9F041E9
:104500000646002410687529314616A510D0AFF371
:104510000080002802DA404213A507E031688A07CC
:1045200001D512A502E0490704D511A5012401E037
:10453000AFF3008000210A2206F1240709E0B0FB56
:10454000F2FCB0FBF2F302FB1C003030785418464A
:10455000491C0028F3D123462A463046BDE8F041E5
:1045600000F0F5B8000000002D0000002B00000056
:104570002000000040EA0103024630B59B0710D13D
:104580004FF0013400E008C208C91D1B9D4315EA25
:10459000C41FF8D013F0FF0102F8011B0DD01B0A55
:1045A000F8E711F8013B002B02F8013B05D011F8A8
:1045B000013B002B02F8013BF3D130BD10B5431C89
:1045C00002E010F8011B71B18107FAD14FF00132FE
:1045D00002C88C1A8C4314EAC211F9D0C01A0A0618
:1045E00003D0C01E10BDC01A10BD0A0401D0801E29
:1045F00010BD0902FCD0401E10BD4FF0000204297E
:10460000C0F0128010F0030C00F01B80CCF1040C01
:10461000BCF1020F18BF00F8012BA8BF20F8022B35
:10462000A1EB0C0100F00DB85FEAC17C24BF00F8DB
:10463000012B00F8012B48BF00F8012B70474FF009
:10464000000200B5134694469646203922BFA0E8E2
:104650000C50A0E80C50B1F12001BFF4F7AF0907EE
:1046600028BFA0E80C5048BF0CC05DF804EB8900DF
:1046700028BF40F8042B08BF704748BF20F8022B22
:1046800011F0804F18BF00F8012B7047704770473A
:104690007047000000487047A455002070477047DD
:1046A0007047704738B504460A4600206946AFF3A4
:1046B0000080002808BF38BD02460099204600F05F
:1046C000D9FA012038BD012000F0E6BBF8B5AFF300
:1046D0000080054600200C46102000BF0646A819A1
:1046E000A0420DD9324669460020AFF30080070092
:1046F00008BF00F0D1FB0098A04218BF0546C419BE
:10470000FFF7C8FF05600746F01D20F007004619B7
:10471000284600F00AF8B44208BFF8BDA21B314693
:104720003868BDE8F84000F0A5BA00210160C0E992
:10473000011070471020704710B500F097FA00681C
:1047400010BD10B5044600F091FA046010BD2DE9CB
:10475000F0470D4699469246044600F12408016848
:10476000880604D5E06921F01001216000E00120F5
:10477000A84201DD471B00E00027A1697A1902EB7E
:104780000900081AA0612078C00602D42046AFF3C1
:104790000080002608E0D4E901211AF806009047BD
:1047A000206A401C761C20624E45F4DB2078C0064F
:1047B0000AD52046AFF3008006E0D4E9012130207D
:1047C0009047206A401C2062381EA7F10107F4DCE4
:1047D00007E0D4E9012118F805009047206A401C41
:1047E0002062281EA5F10105F3DC2046AFF300800E
:1047F0002078000602D50220BDE8F0870120FBE703
:1048000070472DE9FF4F0C461E464FF0FF378BB027
:10481000D2E90001DDF860800A908A46C1F30A55AA
:1048200005B93D46002108464FF00000BAF1000FDF
:1048300000F4400005DA00EB80004FF4400101EA8B
:1048400050004FEA9059B9F1010F00DDB9460A98BE
:1048500050EA4A000ED044F61050A5F2FF35454309
:104860002F14B8F1000F1ED07542291E1EDDC9F1AC
:1048700000021CE0B8F1010F4FF0000001D0302120
:1048800003E0F24305E02154401CB042FBDB30461C
:104890000022002121540B99C1F80880C1E90020B1
:1048A0000FB0BDE8F08FBD1B6D1CDEE74A4600DA95
:1048B000694206A800F07EFA06AB93E8070003AB56
:1048C00083E8070050460A9900F0A1FB8DE8070035
:1048D000A0F500501F3800900398002D0ADD42F229
:1048E0001F014A460844002303A90390684600F0CC
:1048F0000AFE09E0A0F500504A461F38002303A92C
:104900000390684600F014FE8DE807000004000CD8
:1049100003D04FF0FF30410800E01046B8F1000F1F
:1049200003D00022009215461EE0751E05D400F04B
:10493000BBF9303262556D1EF9D5B34601220843EA
:1049400002D000227F1C04E02078302801D1002210
:104950007F1E002A099784D01DE0112D07DA00F090
:10496000A3F9303262556D1C50EA0102F5D10843BB
:1049700002D00098C8B10EE00021681E05E0235C5B
:10498000625C63542254401E491C8142F7DBAB46F3
:10499000A81B401E0990002004F80B000B98099AF0
:1049A000C0F80880C0E9002B7AE711264FF0000814
:1049B00057E72DE9F04F88460446D21D22F0070143
:1049C00091B0D1E90001CDE90A0100F0E8FE02460C
:1049D0000B98C00F01D02D2007E02068810701D57A
:1049E0002B2002E0202101EAC000032A099001D017
:1049F000072A05DB03464146204600F09BF90BE100
:104A00002078800601D5E06900E00620B8F1650F46
:104A1000814606D0B8F1660F18D0B8F1670F70D193
:104A200031E00020B9F1110F009001DB112301E00A
:104A300009F101030AAA01A90CA8FFF7E2FEDDE9CA
:104A40000C70002609F10105834647E001204B4622
:104A500000904FF000470AAA01A90CA8FFF7D1FE69
:104A6000DDE90DB00C995D46002610B909F1010091
:104A70000D18B9EB050003D4C0F1FF3609F10105AB
:104A8000A5EB09002BE0B9F1010F01DA4FF00109A4
:104A90000020B9F1110F0090484601DD112300E01C
:104AA00003460AAA01A90CA8FFF7ABFEDDE90C70CA
:104AB0004D4600268346207800070AD4AB4500DA2D
:104AC0005D4601A8012D04DD411911F8011C3029B2
:104AD00007D04F4502DA17F1040F04DA01208246AD
:104AE0000FE06D1EEEE7002F02DCED1B3E4403E0FD
:104AF000781CA84200DD7D1CB81B00F1010A4FF0B4
:104B000000472078000703D4AA4501DB4FF0FF3AA5
:104B10000021B7F1004F0DF143088DF8431024D068
:104B200002202B23002F01DA7F422D230A21021EAF
:104B3000A0F1010000DC5FB197FBF1FC97FBF1F203
:104B400001FB1C7C17460CF1300C08F801CDEEE798
:104B5000A8F1010003702188090501D5452100E075
:104B60006521A0F1010800F8011C09980FA9A1EB2B
:104B70000807FF1D00B10120411901EBEA70A1698E
:104B80003844081A401EA0612078C00602D420468E
:104B9000AFF30080099828B1D4E901219047206A39
:104BA000401C20622078C00622D52046AFF300804A
:104BB0001EE0002E04DBB34502DD01A8805D00E0AD
:104BC0003020D4E901219047206A401C2062761CE5
:104BD000AAF101005FEA000A0AD100F043F8C068B8
:104BE0000168405CD4E901219047206A401C2062A2
:104BF000281EA5F10105DCDC07E0D4E9012118F845
:104C0000010B9047206A401C2062381EA7F1010763
:104C1000F3DC2046AFF30080032011B041E6000032
:104C200001694A1C02610878704700B58FB0CDE970
:104C300001310021059105497944CDE90310114660
:104C40006846FFF727FC0FB000BD0000E5FFFFFF3F
:104C50000A6802F8010B0A607047000000487047BC
:104C60009C55002000487047BC5500200048704704
:104C70009C550020034640688C46002818BF884297
:104C80003CBF03464068F8D318681844884207D0F0
:104C90000CF1030020F00700001D411A521A0146D2
:104CA000081D0A60FFF7BABB30B5B0F10A024FEA3F
:104CB000900E71F100034EEA817EB0EB0E0061EBC5
:104CC00091014FEA101E4EEA017E10EB0E0041EBFF
:104CD00011114FEA102E4EEA016E10EB0E0041EB5F
:104CE00011214FEA104E4EEA014E10EB0E0041EB3F
:104CF0001141401841F100014FEAD00040EA4170F3
:104D00004FEAD10110EB80054FEA810444EA907428
:104D100044EB01046D1944EB0404521BA3414FF012
:104D2000000348BF0A3200D530BD401C41F10001EC
:104D300030BD00002DE9F0411F46044603260168FE
:104D4000072A01F4006004DB08B116A505E016A5EA
:104D500003E008B115A500E015A521F010002060C2
:104D6000A069C01EA0610FB1401EA0612046AFF334
:104D700000804FB1D4E9012138469047206A401C99
:104D80002062C01C206206E0206AFAE7D4E9012113
:104D900015F8010B9047761EF8D22046AFF300803D
:104DA000BDE8F0814E414E006E616E00494E4600F6
:104DB000696E66002DE9F047814616468AB035488F
:104DC00078440DC88DE80D0032487844801C03AC4F
:104DD0000DC884E80D0041F69B300844372190FB54
:104DE000F1F290FBF1F5A5F1800501FB12041B3CEB
:104DF00002D56442012000E00020DFF898A0804640
:104E00000027FA44AAF1BE0A0EE0E0070AD03246B3
:104E1000684607EB470101230AEB810100F088FB9C
:104E20008DE8070064107F1C002CEED1194F7F44E1
:104E3000AE3F19E0E80715D007EB04100DF1180A92
:104E400090E80E008AE80E00C068F04201D198197F
:104E500008903246012306A903A800F069FB03ABC2
:104E600083E807006D10641C002DE3D14FF00103AF
:104E700032466946B8F1000F03A802D000F043FBA8
:104E800001E000F055FBC9E90001C9F808200AB0AB
:104E9000BDE8F0877027000010B500F037F8BDE8D6
:104EA000104000F02EB87546FFF7D8FEAE4605005C
:104EB0006946534620F00700854618B020B5FBF739
:104EC000D5F9BDE820404FF000064FF000074FF045
:104ED00000084FF0000B21F00701AC46ACE8C00918
:104EE000ACE8C009ACE8C009ACE8C0098D46704721
:104EF00010B50446AFF300802046BDE81040FBF734
:104F0000A0B9002801D0FFF758BA704710B50128A2
:104F100005D0002103A000F061F8012010BD09A117
:104F2000F8E7000053494752544D454D3A204F751C
:104F300074206F662068656170206D656D6F727991
:104F4000000000003A2048656170206D656D6F7249
:104F50007920636F72727570746564004FF0013C64
:104F600050F8042B51F8043B9A4221D1A2EB0C03D8
:104F7000934313EACC1317D150F8042B51F8043B98
:104F80009A4215D1A2EB0C03934313EACC130BD135
:104F900050F8042B51F8043B9A4209D1A2EB0C03C0
:104FA000934313EACC13DBD04FF00000704700BFEF
:104FB000D01A01BAB1FA81F101F0180122FA01F018
:104FC000CB40C1F12001DBB2C0B2C01A2CFA01F310
:104FD000D11A914311EAC311E6D1704770B5054665
:104FE0000C460A2000E06D1CFFF7E6F935B1287881
:104FF0000028F8D102E0641CFFF7DEF914B1207834
:105000000028F8D1BDE870400A20FFF7D5B95FEA63
:10501000400C08BF91F0000F4FEA8C234FEAC122E9
:1050200043EA51514FEA1C5018BF00F5F0404FEAD7
:10503000300018BF41F000415FEA6C5C00F029804D
:10504000BCF1FF3F08BF40F080407047130C06BF23
:1050500012044FF0100C4FF0000C130E04BF12029C
:105060000CF1080C130F04BF12010CF1040C930F88
:1050700004BF92000CF1020CD30F04BF52000CF1DC
:10508000010C11464FF00002A0F11F00A0EB0C0034
:10509000704711F0004F08BF704731F000413FF4F6
:1050A000D5AF0B0C06BF09044FF0100C4FF0000CED
:1050B0000B0E04BF09020CF1080C0B0F04BF090111
:1050C0000CF1040C8B0F04BF89000CF1020CCB0F08
:1050D00004BF49000CF1010CCCF12003A0EB0C0043
:1050E00022FA03F302FA0CF241EA030100F1010093
:1050F000704720F07F4C80EA030023F07F47ACEB41
:10510000070303F57C5300F0004003F1FF032DE992
:1051100080494FEA154B09B44FEA144325EA0B4E78
:1051200024EA03480FF2042606EB132749083E78C9
:105130005FEA320203FB0667C7F5000707FB06F6C6
:105140004FEA54374FEAD64606F1020607FB066CD3
:10515000CCF1005C4FEA1C472CEA074C07FB06F435
:105160000CFB06F504EB15464FEA961634BF0020FB
:105170004FF000404FEAD13706FB07FC4FEA1C4CCA
:105180000CFB0BF7D21B03FB0CF761EB07010CFBCD
:105190000EF7B0EB074072EB17420CFB08F734BF79
:1051A000A2EB0742B2EB074261EB17414FEA0C4416
:1051B0004FEA910706FB07FC4FEA1C4C0CFB0BF770
:1051C000B0EBC74072EB573203FB0CF734BFA2EBD6
:1051D000C742B2EBC74261EB57310CFB0EF7B0EBA5
:1051E000C70072EB57720CFB08F734BFA2EBC70283
:1051F000B2EBC70261EB5771039F4FEA816141EA4D
:10520000921104EBCC044FEAD1374FEA826206FBDD
:1052100007FC42EA90124FEA80604FEA1C4C0CFBFC
:105220000BF7D21B03FB0CF761EB07010CFB0EF72E
:10523000B0EB074072EB17420CFB08F734BFA2EB50
:105240000742B2EB074261EB17414FEA8C554FEA38
:10525000910704EB9C2406FB07FC4FEA1C4C0CFB5B
:105260000BF7B0EBC74072EB573203FB0CF734BFC0
:10527000A2EBC742B2EBC74261EB57310CFB0EF712
:10528000B0EBC70072EB57720CFB08F734BFA2EB10
:10529000C702B2EBC70261EB577115EB4C254FEA21
:1052A000816141EA92114FEA82624FEAD13742EAC4
:1052B000901206FB07FC44F100044FEA80604FEABD
:1052C0001C4C0CFB0BF7D21B03FB0CF761EB07012B
:1052D0000CFB0EF7B0EB074072EB17420CFB08F724
:1052E00034BFA2EB0742B2EB074261EB174115EB6B
:1052F0001C154FEA813141EA92414FEA823242EA7B
:1053000090424FEA80304FEA0C7644F1000448EABC
:1053100003434EEA0B484FF0000EB2EB080C71EB62
:10532000030724BF624639464EEB0E0E4FF0000BCA
:105330000018524149414BEB0B0BB2EB080C71EBDF
:1053400003077BF1000B24BF624639464EEB0E0E7D
:105350004FF0000B0018524149414BEB0B0BB2EBE5
:10536000080C71EB03077BF1000B24BF6246394642
:105370004EEB0E0E51EA020718BF46F0010616EB7F
:105380000E7655F1000254F1000103D5BDE8890104
:10539000BDE80088BDE88901BDE80048B619524162
:1053A00041EB0101A3F10103704780807F7E7D7C8A
:1053B0007B7A7978777676757473727171706F6EA7
:1053C0006E6D6C6C6B6A6A69686867666665646452
:1053D000636362616160605F5F5E5E5D5D5C5C5BDC
:1053E0005B5A5A595958585757565655555554544B
:1053F000535352525251515050504F4F4F4E4E4DA9
:105400004D4D4C4C4C4B4B4B4A4A4A4949494848F4
:105410004847474747464646454545444444444334
:1054200043434342424242414141002B9C4630D4D7
:1054300077002BD01CB54FEA370703B44FF01000AC
:105440004FF01001BAF1000F06D0BCF1000FDCBF25
:1054500040F0080040F008014FF000000FBCBDE82C
:1054600010400BF1010BBBF1010F08BF5FEA1707FA
:1054700022BF12F1010211F101014FF0004143F18D
:10548000000300F0004043EA00007047F9D35708DA
:10549000D0E746EA064613F1400F4FEA16461FDDF5
:1054A00013F1200FDFBF16430A46002120335B4271
:1054B000BED0C3F1200746EA064602FA07F74FEAD4
:1054C000164646EA0706C3F1200722FA03F201FA5C
:1054D00007F721FA03F14FF0000342EA0702A7E7BA
:1054E00046EA020646EA06464FEA164646EA01063C
:1054F000BCBF46EA0646360C4FF000034FF00002F0
:105500004FF0000194E72DE9804C9A46934670B421
:1055100091E8380007C831EA400C48BF34EA430C30
:1055200003D5FFF7E6FDFFF780FFF0BCBDE8008C78
:105530002DE9804C9A46934670B491E8380007C82C
:1055400010F0804F08BF13F0804F03D100F005F832
:10555000FFF76BFFF0BCBDE8008C20F07F4780EACE
:10556000030023F07F4C07EB0C03A3F57C5300F002
:105570000040A3F1FE0392F0000F00F0B38095F01D
:10558000000F00F077802DE901494FEA11404FEA02
:10559000144621EA004800FB06FC24EA064708FB03
:1055A00006F607FB08F800FB07F718EB06484CEB7C
:1055B000164C4FEA124B18EB07484FEA15464CEBD6
:1055C000174022EA0B4E0BFB06FC25EA06470EFBB2
:1055D00006F607FB0EFE0BFB07F71EEB064E4CEB29
:1055E000164C4FF000061EEB074E4CEB174B18EB1A
:1055F0000B0840F1000018EB0E0B58EB000840F1CF
:1056000000008F1A4FF000013CBFC943661B14BF56
:10561000B5EB040C00213CBFC943F61B4FEA17440D
:105620004EEA8E0E27EA04454FEA1C4704FB076248
:105630002CEA074C05FB07F70CFB05F604FB0CFCFA
:1056400016EB074642EB174216EB0C4642EB1C42A8
:105650001BEB060658EB0202414146EA9E0601D5C5
:10566000BDE80189B619524141EB0101A3F10103E3
:10567000BDE801894FEA14454FEA114724EA05467F
:1056800021EA074C05FB07F406FB07F70CFB06F1C4
:1056900005FB0CFC11EB074144EB17444FEA1247A2
:1056A00011EB0C4144EB1C4422EA074C05FB07F2CA
:1056B00006FB07F70CFB06F605FB0CFC16EB074692
:1056C00042EB174216EB0C4642EB1C456A1854F1AC
:1056D000000148BF7047B619524141EB0101A3F1E7
:1056E0000103704795F0000F37D04FEA11424FEA9F
:1056F000144721EA024624EA074C02FB07F106FBA5
:1057000007F70CFB06F402FB0CFC14EB074441EB1F
:1057100017414FEA154714EB0C4441EB1C4125EAB5
:10572000074C02FB07F506FB07F70CFB06F602FB2E
:105730000CFC16EB074645EB174516EB0C4645EB04
:105740001C42121951F1000148BF7047B61952416D
:1057500041EB0101A3F1010370474FEA14454FEA01
:10576000114724EA054621EA074C05FB07F106FB31
:1057700007F70CFB06F24FF0000605FB0CFC12EBE2
:10578000074241EB174112EB0C4251EB1C4148BF61
:105790007047921841EB0101A3F10103704703B474
:1057A00001984100009850EAC12018BF04204A0D1A
:1057B00018BF40F0010040F2FF72B2EB515F08BF2A
:1057C00040F00200012808BF052002B07047000029
:1057D00070B59B482DED020B2DED068B079D25F036
:1057E0000044A04218DC9748844202DC0AD10698A3
:1057F00040B19DED060BBDEC068B02B0BDE87040DC
:1058000000F03ABF002DCCBF9FED8F0B9FED900BAA
:10581000BDEC068B02B070BD8F48A04215DD8F48ED
:10582000A042D8BF4FF0FF3458DD9DED060B51EC80
:10583000100BFFF7B4FF042808BF00F041FF9DEDF7
:10584000060BBDEC068B02B070BD9DED060B51EC56
:10585000100B00F04DFFCDE9060181489FED828BD2
:10586000A0423CDD8248A0421FDD00249FED82ABB8
:105870009DED060B53EC1A2B51EC100B00F098FF2A
:105880009DED060B41EC190B53EC1A2B51EC100B50
:1058900001F0E8F953EC182B01F0BAFB53EC192B8B
:1058A00001F02EF8CDE9060149E09DED060B01243B
:1058B00053EC182B51EC100B00F07AFF9DED060B0A
:1058C00041EC190B53EC182B51EC100B01F0A0FB21
:1058D00053EC192B01F014F8CDE906012FE06848CC
:1058E000A0421FDD02249FED689B9DED060B53EC4B
:1058F000192B51EC100B01F0B5F953EC182B00F0FB
:1059000057FF9DED060B41EC180B53EC192B51EC96
:10591000100B01F07DFB53EC182B00F0F1FFCDE9EB
:1059200006010CE09DED060B032453EC102B9FEDBC
:10593000580B51EC100B00F0E3FFCDE906019DED93
:10594000060B53EC102B51EC100B01F08BF941ECD2
:10595000180B53EC182B01F085F941EC190B4E484C
:105960000621B0EE490AF0EE690A784400F070FDB5
:1059700053EC182B51EC100B01F074F941EC180B9F
:105980004648B0EE490AF0EE690A0521784400F075
:105990005FFD53EC192B51EC100B01F063F941EC56
:1059A000100B51EC180B53EC102B002C0EDA00F0FE
:1059B000FFFE9DED061B53EC112B01F053F99DEDFD
:1059C000061B53EC112B01F04BFA35E000F0F0FE12
:1059D0009DED061B53EC112B01F044F941EC100B2B
:1059E0002F48784400EBC40090ED001B51EC100BE5
:1059F00053EC112B01F00CFB9DED061B53EC112B0E
:105A000001F006FB41EC100B2648784400EBC40083
:105A100090ED001B51EC100B53EC112B01F020FA10
:105A200041EC100B002DA2BFBDEC068B02B070BD87
:105A300051EC100B00F07EFE41EC100B01E7000072
:105A4000000010440000F07F182D4454FB21F93F62
:105A5000182D4454FB21F9BF0000DC3F0000203E1C
:105A60000000F33F00000000000000000000F03FD5
:105A70000000E63F000000000000000000000040C1
:105A80000080034000000000000000000000F83F1C
:105A9000000000000000F0BFF2190000A81900008B
:105AA00032190000EA18000070B56B4E2DED040BA2
:105AB0002DED028B82B0DDF81CC0DDE905235C42D0
:105AC0002CF000411C4341EAD474049D22F00040B4
:105AD000B44205D86C422C4340EAD474B4420BD98A
